:10000000020030320000000000000032000000005A
:10001000000000320000000000000032000000007C
:10002000000000320000000000000080FE00000020
:100030007830900000E0F6A308B840F91165117718
:1000400011EC7B091184119111BA117711ECDBF4D9
:100050001184119111777830900000E6F008A3B870
:1000600040F902002B79409010007F00EF93F709D0
:100070000FBF10F87A012278307940E667F6080958
:10008000B840F8227830900115E693F608B840F9A8
:1000900022E531853531853935853D39F53DE53206
:1000A000853A32F53AE536853E36F53EE533853F0D
:1000B00033853B3F85373BF5372278307931E6FF92
:1000C0006709670967FE19197D03E66711E26E6625
:1000D000F60809DDF5E66F11E26E66F60809B8402C
:1000E000DD22C333FCE49400541B6C22900115E51F
:1000F0004D936A6240E54E936241E54F936242E55B
:100100004C93624378407944E667F70809B950F8A0
:10011000EA11E2FA22637C777BF26B6FC5300167EC
:100120002BFED7AB76CA82C97DFA5947F0ADD4A26F
:10013000AF9CA472C0B7FD9326363FF7CC34A5E53B
:10014000F171D8311504C723C31896059A07128098
:10015000E2EB27B27509832C1A1B6E5AA0523BD6CC
:10016000B329E32F8453D100ED20FCB15B6ACBBEF1
:10017000394A4C58CFD0EFAAFB434D338545F9029D
:100180007F503C9FA851A3408F929D38F5BCB6DAB2
:100190002110FFF3D2CD0C13EC5F974417C4A77E58
:1001A0003D645D197360814FDC222A908846EEB869
:1001B00014DE5E0BDBE0323A0A4906245CC2D3ACA3
:1001C000629195E479E7C8376D8DD54EA96C56F4E8
:1001D000EA657AAE08BA78252E1CA6B4C6E8DD74A6
:1001E0001F4BBD8B8A703EB5664803F60E613557CE
:1001F000B986C11D9EE1F8981169D98E949B1E871E
:10020000E9CE5528DF8CA1890DBFE6426841992DC2
:050210000FB054BB1605
:00000001FF
